{
  "contractName": "PhotoContract",
  "abi": [
    {
      "constant": false,
      "inputs": [
        {
          "name": "_name",
          "type": "string"
        },
        {
          "name": "_url",
          "type": "string"
        },
        {
          "name": "_description",
          "type": "string"
        },
        {
          "name": "_date",
          "type": "string"
        },
        {
          "name": "_location",
          "type": "string"
        },
        {
          "name": "_price",
          "type": "uint256"
        }
      ],
      "name": "addPhoto",
      "outputs": [],
      "payable": false,
      "stateMutability": "nonpayable",
      "type": "function"
    },
    {
      "constant": false,
      "inputs": [],
      "name": "kill",
      "outputs": [],
      "payable": false,
      "stateMutability": "nonpayable",
      "type": "function"
    },
    {
      "constant": true,
      "inputs": [],
      "name": "getNumberOfPhotos",
      "outputs": [
        {
          "name": "",
          "type": "uint256"
        }
      ],
      "payable": false,
      "stateMutability": "view",
      "type": "function"
    },
    {
      "constant": true,
      "inputs": [
        {
          "name": "",
          "type": "uint256"
        }
      ],
      "name": "photos",
      "outputs": [
        {
          "name": "id",
          "type": "uint256"
        },
        {
          "name": "name",
          "type": "string"
        },
        {
          "name": "url",
          "type": "string"
        },
        {
          "name": "owner",
          "type": "address"
        },
        {
          "name": "description",
          "type": "string"
        },
        {
          "name": "date",
          "type": "string"
        },
        {
          "name": "location",
          "type": "string"
        },
        {
          "name": "price",
          "type": "uint256"
        }
      ],
      "payable": false,
      "stateMutability": "view",
      "type": "function"
    },
    {
      "constant": true,
      "inputs": [],
      "name": "getPhotosListed",
      "outputs": [
        {
          "name": "",
          "type": "uint256[]"
        }
      ],
      "payable": false,
      "stateMutability": "view",
      "type": "function"
    },
    {
      "anonymous": false,
      "inputs": [
        {
          "indexed": true,
          "name": "_id",
          "type": "uint256"
        },
        {
          "indexed": false,
          "name": "_owner",
          "type": "address"
        },
        {
          "indexed": false,
          "name": "_name",
          "type": "string"
        },
        {
          "indexed": false,
          "name": "_url",
          "type": "string"
        },
        {
          "indexed": false,
          "name": "_description",
          "type": "string"
        },
        {
          "indexed": false,
          "name": "_date",
          "type": "string"
        },
        {
          "indexed": false,
          "name": "_location",
          "type": "string"
        },
        {
          "indexed": false,
          "name": "_price",
          "type": "uint256"
        }
      ],
      "name": "addedPhotoEvent",
      "type": "event"
    }
  ],
  "bytecode": "0x6060604052336000806101000a81548173ffffffffffffffffffffffffffffffffffffffff021916908373ffffffffffffffffffffffffffffffffffffffff160217905550610c5f806100536000396000f30060606040526004361061006d576000357c0100000000000000000000000000000000000000000000000000000000900463ffffffff168063292277971461007257806341c0e1b5146101e457806383f7b8e1146101f9578063af2a5d6f14610222578063b536476114610540575b600080fd5b341561007d57600080fd5b6101e2600480803590602001908201803590602001908080601f0160208091040260200160405190810160405280939291908181526020018383808284378201915050505050509190803590602001908201803590602001908080601f0160208091040260200160405190810160405280939291908181526020018383808284378201915050505050509190803590602001908201803590602001908080601f0160208091040260200160405190810160405280939291908181526020018383808284378201915050505050509190803590602001908201803590602001908080601f0160208091040260200160405190810160405280939291908181526020018383808284378201915050505050509190803590602001908201803590602001908080601f016020809104026020016040519081016040528093929190818152602001838380828437820191505050505050919080359060200190919050506105aa565b005b34156101ef57600080fd5b6101f76109aa565b005b341561020457600080fd5b61020c610a3f565b6040518082815260200191505060405180910390f35b341561022d57600080fd5b6102436004808035906020019091905050610a49565b6040518089815260200180602001806020018873ffffffffffffffffffffffffffffffffffffffff1673ffffffffffffffffffffffffffffffffffffffff16815260200180602001806020018060200187815260200186810386528d81815460018160011615610100020316600290048152602001915080546001816001161561010002031660029004801561031a5780601f106102ef5761010080835404028352916020019161031a565b820191906000526020600020905b8154815290600101906020018083116102fd57829003601f168201915b505086810385528c81815460018160011615610100020316600290048152602001915080546001816001161561010002031660029004801561039d5780601f106103725761010080835404028352916020019161039d565b820191906000526020600020905b81548152906001019060200180831161038057829003601f168201915b505086810384528a8181546001816001161561010002031660029004815260200191508054600181600116156101000203166002900480156104205780601f106103f557610100808354040283529160200191610420565b820191906000526020600020905b81548152906001019060200180831161040357829003601f168201915b50508681038352898181546001816001161561010002031660029004815260200191508054600181600116156101000203166002900480156104a35780601f10610478576101008083540402835291602001916104a3565b820191906000526020600020905b81548152906001019060200180831161048657829003601f168201915b50508681038252888181546001816001161561010002031660029004815260200191508054600181600116156101000203166002900480156105265780601f106104fb57610100808354040283529160200191610526565b820191906000526020600020905b81548152906001019060200180831161050957829003601f168201915b50509d505050505050505050505050505060405180910390f35b341561054b57600080fd5b610553610aac565b6040518080602001828103825283818151815260200191508051906020019060200280838360005b8381101561059657808201518184015260208101905061057b565b505050509050019250505060405180910390f35b6002600081548092919060010191905055506101006040519081016040528060025481526020018781526020018681526020013373ffffffffffffffffffffffffffffffffffffffff1681526020018581526020018481526020018381526020018281525060016000600254815260200190815260200160002060008201518160000155602082015181600101908051906020019061064a929190610b7a565b506040820151816002019080519060200190610667929190610b7a565b5060608201518160030160006101000a81548173ffffffffffffffffffffffffffffffffffffffff021916908373ffffffffffffffffffffffffffffffffffffffff16021790555060808201518160040190805190602001906106cb929190610b7a565b5060a08201518160050190805190602001906106e8929190610b7a565b5060c0820151816006019080519060200190610705929190610b7a565b5060e082015181600701559050506002547fb886cf5f6700ff6c537fc5dafcb56ab31bda2d6f3afe196ec1aa72f5341a97a033888888888888604051808873ffffffffffffffffffffffffffffffffffffffff1673ffffffffffffffffffffffffffffffffffffffff168152602001806020018060200180602001806020018060200187815260200186810386528c818151815260200191508051906020019080838360005b838110156107c65780820151818401526020810190506107ab565b50505050905090810190601f1680156107f35780820380516001836020036101000a031916815260200191505b5086810385528b818151815260200191508051906020019080838360005b8381101561082c578082015181840152602081019050610811565b50505050905090810190601f1680156108595780820380516001836020036101000a031916815260200191505b5086810384528a818151815260200191508051906020019080838360005b83811015610892578082015181840152602081019050610877565b50505050905090810190601f1680156108bf5780820380516001836020036101000a031916815260200191505b50868103835289818151815260200191508051906020019080838360005b838110156108f85780820151818401526020810190506108dd565b50505050905090810190601f1680156109255780820380516001836020036101000a031916815260200191505b50868103825288818151815260200191508051906020019080838360005b8381101561095e578082015181840152602081019050610943565b50505050905090810190601f16801561098b5780820380516001836020036101000a031916815260200191505b509c5050505050505050505050505060405180910390a2505050505050565b6000809054906101000a900473ffffffffffffffffffffffffffffffffffffffff1673ffffffffffffffffffffffffffffffffffffffff163373ffffffffffffffffffffffffffffffffffffffff16141515610a0557600080fd5b6000809054906101000a900473ffffffffffffffffffffffffffffffffffffffff1673ffffffffffffffffffffffffffffffffffffffff16ff5b6000600254905090565b6001602052806000526040600020600091509050806000015490806001019080600201908060030160009054906101000a900473ffffffffffffffffffffffffffffffffffffffff16908060040190806005019080600601908060070154905088565b610ab4610bfa565b610abc610bfa565b60008060006002541415610af1576000604051805910610ad95750595b90808252806020026020018201604052509350610b74565b600254604051805910610b015750595b9080825280602002602001820160405250925060009150600190505b60025481111515610b705760016000828152602001908152602001600020600001548383815181101515610b4d57fe5b906020019060200201818152505081806001019250508080600101915050610b1d565b8293505b50505090565b828054600181600116156101000203166002900490600052602060002090601f016020900481019282601f10610bbb57805160ff1916838001178555610be9565b82800160010185558215610be9579182015b82811115610be8578251825591602001919060010190610bcd565b5b509050610bf69190610c0e565b5090565b602060405190810160405280600081525090565b610c3091905b80821115610c2c576000816000905550600101610c14565b5090565b905600a165627a7a72305820ad595afed9917333bcb3e011efc967dddb0f12e8ab8ce5403821d908e67957090029",
  "source": "pragma solidity ^0.4.2;\n\nimport \"./Owned.sol\";\n\n/**\n * The PhotoContract contract does allows uploading of photo metadata to the blockchain\n */\ncontract PhotoContract is Owned {\n\n\t// Init Photo struct\n\tstruct Photo{\n\t  uint id;\n\t  string name;\n\t  string url;\n\t  address owner;\n\t  string description;\n\t  string date;\n\t  string location;\n\t  uint256 price;\n\t}\n\n\t// State variables\n\tmapping(uint => Photo) public photos;\n\tuint photoCounter;\n\n\t// Events\n\n\tevent addedPhotoEvent(\n\t  uint indexed _id,\n\t  address _owner,\n\t  string _name,\n\t  string _url,\n\t  string _description,\n\t  string _date,\n\t  string _location,\n\t  uint256 _price\n\t);\n\n\t// Functions\n\n\t// add a photo\n\tfunction addPhoto(string _name, string _url, string _description, string _date, string _location, uint256 _price) public {\n\t  // a new photo\n\t  photoCounter++;\n\n\t  // store this article\n\t  photos[photoCounter] = Photo(\n\t       photoCounter,\n\t       _name,\n\t       _url,\n\t       msg.sender,\n\t       _description,\n\t       _date,\n\t       _location,\n\t       _price\n\t  );\n\n\t  // trigger the event\n\t  addedPhotoEvent(photoCounter, msg.sender, _name, _url, _description, _date, _location, _price);\n\t}\n\n\n\t// fetch the number of photos in the contract\n\tfunction getNumberOfPhotos() public constant returns (uint) {\n\t  return photoCounter;\n\t}\n\n\t// fetch and returns all photo IDs on site\n\t// This is a dumb function. Does return photos array that already exists\n\t// Can possibly use this later to get photos uploaded by specific userss\n\tfunction getPhotosListed() public constant returns (uint[]) {\n\t  // we check whether there is at least one article\n\t  if(photoCounter == 0) {\n\t    return new uint[](0);\n\t  }\n\n\t  // prepare intermediary array\n\t  uint[] memory photoIds = new uint[](photoCounter);\n\n\t  uint numberOfPhotosListed = 0; \n\t  // iterate over articles\n\t  for (uint i = 1; i <= photoCounter; i++) {\n\t      photoIds[numberOfPhotosListed] = photos[i].id;\n\t      numberOfPhotosListed++; \n\t  }\n\n\t  // copy the photoIds array into the smaller forSale array\n\t  // uint[] memory forSale = new uint[](numberOfArticlesForSale);\n\t  // for (uint j = 0; j < numberOfArticlesForSale; j++) {\n\t  //   forSale[j] = photoIds[j];\n\t  // }\n\t  return (photoIds);\n\t}\n\n\n\t// kill the smart contract only if you're the owner\n\tfunction kill() onlyOwner public{\n\t  selfdestruct(owner);\n\t}\n}\n",
  "sourcePath": "/Users/sweaver/dev/blockchain/photoContract/contracts/PhotoContract.sol",
  "compiler": {
    "name": "solc",
    "version": "0.4.18+commit.9cf6e910.Emscripten.clang"
  },
  "schemaVersion": "1.0.1",
  "updatedAt": "2018-01-18T04:26:50.810Z"
}